:020000040800F2
:10000000600600206D0100087501000877010008F6
:10001000790100087B0100087D0100080000000054
:100020000000000000000000000000007F01000848
:10003000810100080000000083010008850100081C
:100040008701000887010008870100088701000870
:100050008701000887010008870100088701000860
:100060008701000887010008870100088701000850
:100070008701000887010008870100088701000840
:100080008701000887010008870100088701000830
:100090008701000887010008870100088701000820
:1000A0008701000887010008870100088701000810
:1000B0008701000887010008870100088701000800
:1000C00087010008870100088701000887010008F0
:1000D00087010008870100088701000887010008E0
:1000E00087010008870100088701000800F002F876
:1000F00000F02CF80AA090E8000C82448344AAF196
:100100000107DA4501D100F021F8AFF2090EBAE893
:100110000F0013F0010F18BFFB1A43F0010318473B
:10012000B80F0000C80F000000230024002500269F
:10013000103A28BF78C1FBD8520728BF30C148BF4A
:100140000B6070471FB51FBD10B510BD00F031F832
:100150001146FFF7F7FF00F0A7FF00F04FF803B4D8
:10016000FFF7F2FF03BC00F057F800000948804792
:1001700009480047FEE7FEE7FEE7FEE7FEE7FEE789
:10018000FEE7FEE7FEE7FEE704480549054A064BA1
:1001900070470000E5060008ED0000086000002040
:1001A0006006002060020020600200207047704757
:1001B0007047754600F02CF8AE4605006946534678
:1001C00020F00700854618B020B5FFF7DDFFBDE839
:1001D00020404FF000064FF000074FF000084FF0AE
:1001E000000BAC46ACE8C009ACE8C009ACE8C009FB
:1001F000ACE8C00921F007018D46704710B50446F0
:10020000AFF300802046BDE81040FFF7A8BF000014
:10021000004870470000002001491820ABBEFEE7EF
:10022000260002007047000080B590B00220012136
:10023000049100F089F904990420039000F0A0F9DA
:100240000499082000F09CF9482001908DF82700BF
:100250004FF4C040ADF82400032006908DF826002E
:1002600040F60040C4F2010009A9029100F040F8F4
:10027000019A029906988DF82720C022ADF8242013
:100280008DF8260040F60000C4F2010000F030F8BE
:1002900000200890ADF836004FF6FF70ADF838003A
:1002A00040F20040C4F2000005900DA900F05AFE93
:1002B000039A04990598ADF82820ADF82C100A216E
:1002C0000791ADF82A100AA900F0D8FC0499059806
:1002D00000F068FC05980699079B1A4600F078FC28
:1002E000089840F22441C4F20001088010B080BD9B
:1002F00088B007900691002005900490039002902A
:10030000019000900698C07800F00F0005900698C4
:10031000C078C006002806D5FFE7069881780598C2
:1003200008430590FFE70698007800284BD0FFE7C8
:1003300007980068019000200390FFE703980728C2
:100340003DD8FFE703990120884002900698008875
:100350000299084004900498029988422AD1FFE744
:1003600003988000029002990F2088400090009925
:100370000198884301900598029900FA01F10198CB
:10038000084301900698C078282806D1FFE7039912
:1003900001208840079948610BE00698C0784828FA
:1003A00006D1FFE703990120884007990861FFE71C
:1003B000FFE7FFE7FFE7039801300390BEE70198EE
:1003C00007990860FFE706980088B0F5807F50DB4A
:1003D000FFE707984068019000200390FFE703982B
:1003E000072842D8FFE7039800F108010120884060
:1003F0000290069800880299084004900498029997
:1004000088422DD1FFE703988000029002990F20C7
:1004100088400090009901988843019005980299BE
:1004200000FA01F10198084301900698C078282845
:1004300008D1FFE7039800F10801012088400799DF
:100440004861FFE70698C078482808D1FFE703987D
:1004500000F108010120884007990861FFE7FFE7E4
:10046000FFE7039801300390B9E7019807994860C6
:10047000FFE708B07047000082B00190ADF80210AD
:100480008DF801209DF8010028B1FFE7BDF80200BA
:100490000199086104E0BDF8020001994861FFE795
:1004A00002B0704780B58EB004200121049100F0A5
:1004B00067F80499084600F047F8049818218DF869
:1004C0003710ADF83400032000908DF8360040F668
:1004D0000000C4F2010001900DA90291FFF708FF8E
:1004E000009A0198029910238DF837300C23ADF84B
:1004F00034308DF83620FFF7FBFE00200390ADF876
:100500002A006320ADF82C004720ADF828004FF0FA
:10051000804005900AA900F025FD0499059800F097
:1005200041FB039A049905986023ADF81830ADF8A3
:1005300020203222ADF81E20ADF81A1006A900F0D6
:1005400017FC0EB080BD000082B001908DF8031042
:100550009DF8030048B1FFE7019A41F21C01C4F283
:10056000020108681043086008E0019A41F21C018A
:10057000C4F20201086890430860FFE702B07047C8
:1005800082B001908DF803109DF8030048B1FFE799
:10059000019A41F21801C4F2020108681043086090
:1005A00008E0019A41F21801C4F202010868904380
:1005B0000860FFE702B0704780B500F001F880BD29
:1005C00084B000200390029041F20001C4F20201C5
:1005D000086840F480300860FFE741F20000C4F290
:1005E0000200006800F4003002900398013003908C
:1005F000FFE702990020019039B9FFE70398B0F5B1
:10060000A06018BF01200190FFE70198C0070028F3
:10061000E3D1FFE741F20000C4F20200006880036A
:10062000002803D5FFE70120029002E0002002909D
:10063000FFE70298012851D1FFE742F20001C4F21E
:100640000201086840F010000860086820F0070008
:100650000860086840F00200086041F20401C4F23A
:10066000020100910868086008680860086840F4A2
:1006700080600860086820F47C100860086840F416
:10068000E810086041F20001C4F20201086840F07D
:1006900080700860FFE741F20000C4F202000068C9
:1006A0008001002801D4FFE7F5E741F20401C4F21C
:1006B0000201086820F003000860086840F00200AA
:1006C0000860FFE741F20400C4F20200006800F095
:1006D0000C00082801D0FFE7F4E700E0FFE704B0D2
:1006E0007047000080B541F20002C4F202021068B7
:1006F00040F00100106041F20401C4F202010868F8
:100700000023CFF6FF031840086010684FF6FF7310
:10071000CFF6F66318401060106820F48020106057
:10072000086820F4FE00086041F20801C4F20201EA
:100730004FF41F000860FFF73FFF4EF60851CEF25E
:1007400000014FF00060086080BD000084B003909D
:10075000ADF80A10ADF80820ADF806300020ADF86D
:100760000400ADF802000399088C20F00100088411
:100770000398008BADF804000398008CADF80200DC
:10078000BDF8040020F0F300ADF80400BDF8080047
:10079000BDF8061040EA0111BDF804000843ADF8A9
:1007A0000400039842F60041C4F20101884225D0BA
:1007B000FFE7039843F20041C4F2010188421DD0D3
:1007C000FFE70398B0F1804F18D0FFE7039840F29D
:1007D0000041C4F20001884210D0FFE7039840F6C0
:1007E0000001C4F20001884208D0FFE7039840F6F8
:1007F0000041C4F20001884210D1FFE7BDF80200B9
:1008000020F00200ADF80200BDF80A00BDF80210A9
:10081000084340F00100ADF802000FE0BDF802000F
:1008200020F00A00ADF80200BDF80A00BDF8021081
:10083000084340F00100ADF80200FFE7BDF80400F6
:1008400003990883BDF802000399088404B0704737
:1008500084B00390ADF80A10ADF80820ADF806306A
:100860000020ADF80400ADF80200ADF800000399D7
:10087000088C20F0100008840398008BADF8040069
:100880000398008CADF80200BDF80A000001ADF835
:100890000000BDF8040040F6FF410840ADF8040038
:1008A000BDF80610BDF8040040EA0130ADF80400C0
:1008B000BDF80810BDF8040040EA0120ADF80400BE
:1008C000039842F60041C4F20101884225D0FFE7B7
:1008D000039843F20041C4F2010188421DD0FFE7B2
:1008E0000398B0F1804F18D0FFE7039840F2004121
:1008F000C4F20001884210D0FFE7039840F60001DF
:10090000C4F20001884208D0FFE7039840F6004196
:10091000C4F20001884210D1FFE7BDF8020020F0C8
:100920002000ADF80200BDF80000BDF80210084339
:1009300040F01000ADF802000FE0BDF8020020F01A
:10094000A000ADF80200BDF80A00BDF8021008438F
:1009500040F01000ADF80200FFE7BDF80400039975
:100960000883BDF802000399088404B070470000B2
:1009700084B00390ADF80A10ADF80820ADF8063049
:100980000020ADF80400ADF80200ADF800000399B6
:10099000088C20F4807008840398808BADF80400E4
:1009A0000398008CADF80200BDF80A000002ADF813
:1009B0000000BDF8040020F0F300ADF80400BDF81D
:1009C0000800BDF8061040EA0111BDF80400084314
:1009D000ADF80400039842F60041C4F201018842D8
:1009E00025D0FFE7039843F20041C4F20101884299
:1009F0001DD0FFE70398B0F1804F18D0FFE70398B0
:100A000040F20041C4F20001884210D0FFE7039891
:100A100040F60001C4F20001884208D0FFE70398C5
:100A200040F60041C4F20001884210D1FFE7BDF852
:100A3000020020F40070ADF80200BDF80000BDF81F
:100A40000210084340F48070ADF802000FE0BDF8DA
:100A5000020020F42060ADF80200BDF80A00BDF8E5
:100A60000210084340F48070ADF80200FFE7BDF8C3
:100A7000040003998883BDF802000399088404B038
:100A80007047000084B00390ADF80A10ADF808205C
:100A9000ADF806300020ADF80400ADF80200ADF866
:100AA00000000399088C20F4805008840398808B00
:100AB000ADF804000398008CADF80200BDF80A0000
:100AC0000003ADF80000BDF8040040F6FF41084007
:100AD000ADF80400BDF80810BDF8040040EA01209C
:100AE000ADF80400BDF80610BDF8040040EA01307E
:100AF000ADF80400039842F60041C4F201018842B7
:100B000025D0FFE7039843F20041C4F20101884277
:100B10001DD0FFE70398B0F1804F18D0FFE703988E
:100B200040F20041C4F20001884210D0FFE7039870
:100B300040F60001C4F20001884208D0FFE70398A4
:100B400040F60041C4F20001884210D1FFE7BDF831
:100B5000020020F40050ADF80200BDF80000BDF81E
:100B60000210084340F48050ADF8020010E0BDF8D8
:100B7000020047F6FF510840ADF80200BDF80A0038
:100B8000BDF80210084340F48050ADF80200FFE7C2
:100B9000BDF8040003998883BDF802000399088416
:100BA00004B0704782B001908DF803109DF80300E7
:100BB00030B1FFE70199088840F00100088005E0A6
:100BC0000199088820F001000880FFE702B0704713
:100BD00084B00390ADF80A10ADF80820ADF80630E7
:100BE0000020ADF80400ADF80200ADF80000039855
:100BF0000089ADF804000398008BADF8020003985B
:100C0000008CADF80000BDF8040020F00700ADF83E
:100C10000400BDF80A10BDF804000843ADF8040054
:100C2000BDF802004FF6FC410840ADF80200BDF8E7
:100C3000020040F201110843ADF80200BDF80000C7
:100C400020F02200ADF80000BDF80800BDF8061045
:100C500040EA0111BDF800000843ADF80000BDF8FE
:100C6000040003990881BDF8020003990883BDF8C8
:100C700000000399088404B07047000080B582B07A
:100C800001900091019842F60041C4F201018842AE
:100C900025D0FFE7019843F20041C4F201018842E8
:100CA0001DD0FFE70198B0F1804F18D0FFE7019801
:100CB00040F20041C4F20001884210D0FFE70198E1
:100CC00040F60001C4F20001884208D0FFE7019815
:100CD00040F60041C4F20001884201D1FFE700E084
:100CE000FFE70098008868B9FFE70198009B5988E2
:100CF0009A881B89FFF72AFD01980099C98800F09E
:100D0000E9F832E00098008804280DD1FFE7019847
:100D1000009B59889A881B89FFF79AFD01980099D2
:100D2000C98800F0E9F81FE00098008808280DD174
:100D3000FFE70198009B59889A881B89FFF718FEE6
:100D400001980099C98800F0E9F80CE00198009B2F
:100D500059889A881B89FFF795FE01980099C988E0
:100D600000F0EEF8FFE7FFE7FFE702B080BD00000C
:100D700084B0039002910020ADF80600ADF80400A5
:100D8000ADF802000399088C20F001000884039854
:100D9000008CADF8040003988088ADF80200039839
:100DA000008BADF80600BDF8060020F07000ADF82D
:100DB0000600BDF8060020F00300ADF8060002981A
:100DC0000188BDF806000843ADF80600BDF8040030
:100DD00020F00200ADF8040002980189BDF804007B
:100DE0000843ADF8040002984188BDF804000843A8
:100DF000ADF80400039842F60041C4F201018842B4
:100E000020D0FFE7039843F20041C4F20101884279
:100E100018D0FFE7039844F20001C4F201018842B0
:100E200010D0FFE7039844F20041C4F20101884268
:100E300008D0FFE7039844F60001C4F2010188429C
:100E400035D1FFE7BDF8040020F00800ADF804003C
:100E500002984189BDF804000843ADF80400BDF8CC
:100E6000040020F00400ADF8040002988188BDF869
:100E700004000843ADF80400BDF8020020F48070BF
:100E8000ADF80200BDF8020020F40070ADF80200D9
:100E900002988189BDF802000843ADF8020002986B
:100EA000C189BDF802000843ADF80200FFE7BDF8B4
:100EB000020003998880BDF8060003990883029810
:100EC000C08803998886BDF804000399088404B09B
:100ED0007047000082B00190ADF802100199088BB4
:100EE00020F00C000883BDF802200199088B104304
:100EF000088302B07047000082B00190ADF8021084
:100F00000199088B20F440600883BDF80220019904
:100F1000088B40EA0220088302B0704782B001903B
:100F2000ADF802100199888B20F00C008883BDF881
:100F300002200199888B1043888302B0704700001B
:100F400082B00190ADF802100199888B20F44060C6
:100F50008883BDF802200199888B40EA02208883AB
:100F600002B0704783B0029001910020ADF80200FA
:100F700002980088ADF80200029842F60041C4F2DF
:100F80000101884225D0FFE7029843F20041C4F2F4
:100F9000010188421DD0FFE70298B0F1804F18D0C0
:100FA000FFE7029840F20041C4F20001884210D0ED
:100FB000FFE7029840F60001C4F20001884208D021
:100FC000FFE7029840F60041C4F2000188420ED1CA
:100FD000FFE7BDF8020020F07000ADF802000198B4
:100FE0004188BDF802000843ADF80200FFE702980F
:100FF00041F20001C4F20001884216D0FFE70298D6
:1010000041F20041C4F2000188420ED0FFE7BDF872
:10101000020020F44070ADF802000198C188BDF8CC
:1010200002000843ADF80200FFE7BDF80200029994
:101030000880019880880299888501980088029923
:101040000885029842F60041C4F20101884220D08E
:10105000FFE7029843F20041C4F20101884218D030
:10106000FFE7029844F20001C4F20101884210D067
:10107000FFE7029844F20041C4F20101884208D01F
:10108000FFE7029844F60001C4F20101884205D14D
:10109000FFE70198007A02990886FFE7029901208C
:1010A000888203B07047000080B582B000200190B4
:1010B000FFF7F8F9FFF7B8F8FFE740F60000C4F2D1
:1010C0000100009004210122FFF7D6F900980821C1
:1010D0000022FFF7D1F9F0E7E81000080000002037
:0810E000600600002801000871
:040000050800016D81
:00000001FF
