:020000040800F2
:10000000A0060020190200082102000823020008AF
:10001000250200082702000829020008000000004D
:100020000000000000000000000000002B0200089B
:100030002D020008000000002F0200083102000815
:1000400033020008330200083302000833020008BC
:100050003302000833020008451500083302000887
:10006000330200083302000833020008330200089C
:10007000330200083302000833020008330200088C
:10008000330200083302000833020008330200087C
:10009000330200083302000833020008330200086C
:1000A000330200083302000833020008330200085C
:1000B00033020008A91E00083302000833020008BA
:1000C000330200083302000833020008330200083C
:1000D0003302000833020008330200083922000806
:1000E00033020008330200083302000800F002F86F
:1000F00000F082F80AA090E8000C82448344AAF140
:100100000107DA4501D100F077F8AFF2090EBAE83D
:100110000F0013F0010F18BFFB1A43F0010318473B
:10012000F4360000043700000023002400250026D8
:10013000103A28BF78C1FBD8520728BF30C148BF4A
:100140000B6070476E2900F04D81702900F08F829E
:10015000662903F0CE82652903F0CB82672903F07C
:10016000C882612903F0C78203681B0A28BF41F0D7
:100170008001692900F0FA80642900F0F780752970
:1001800000F0F4806F2900F01D82782900F05B8276
:10019000E92900F0B781E42900F0B481F52900F0E5
:1001A000B181EF2900F01A82F82900F05A82036821
:1001B000DB0928BF41F08001632900F09F87732984
:1001C00000F0A487E32900F0AF87F32900F0B4879B
:1001D000002070471FB501F04BF8040000200021FB
:1001E00002F0F2FE401C60600020002102F002FFDD
:1001F000E0601FBD10B510BD01F015F81146FFF706
:10020000E9FF02F0C3FA01F0F7F803B4FFF7F2FFD9
:1002100003BC01F03BF9000008488047084800474C
:10022000FEE7FEE7FEE7FEE7FEE7FEE7FEE7FEE7A6
:10023000FEE704480449054A054B7047411E000883
:10024000ED000008A0000020A0060020A002002071
:10025000A00200200FB41CB5084B06AA7B446946D7
:100260000090059800F0D7F804460020694600F099
:10027000E5F820461CBC5DF814FB0000DD01000021
:1002800070B5064600F00CF80468054630460A22B0
:10029000002100F0BBFA2C6070BD704770477047BA
:1002A000004870470000002070B50446856900686A
:1002B000C10601D5302600E02026C00707D070BD5A
:1002C000D4E9012130469047206A401C20626D1E0F
:1002D000F6D570BD70B5044685690078C00707D1B2
:1002E00070BDD4E9012120209047206A401C206283
:1002F0006D1EF6D570BD09684A0501D540B270473C
:10030000C905FCD500B2704709684A0501D5C0B2DD
:100310007047C905FCD580B2704770B50C460546DC
:10032000012A05D02878800600D5EA69002302E07A
:10033000012305E05B1C934202D2E05C0028F9D166
:10034000A869E618C01AA861286A184428622846D5
:10035000FFF7AAFF04E0D5E9012114F8010B90474B
:10036000B442F8D32846FFF7B5FF70BD2DE9F04140
:100370000646002410687529314616A510D0FFF7EF
:10038000BAFF002802DA404213A507E031688A0765
:1003900001D512A502E0490704D511A5012401E009
:1003A000FFF7B2FF00210A2206F1240709E0B0FBA3
:1003B000F2FCB0FBF2F302FB1C003030785418461C
:1003C000491C0028F3D123462A463046BDE8F041B7
:1003D00000F0A5BA000000002D0000002B00000076
:1003E0002000000011680268006A530501D50870FA
:1003F0000AE0D30501D5088006E0130603D5C2172D
:10040000C1E9000200E008600120704701694A1C50
:1004100002610878704700B58FB0CDE90131002145
:10042000059105497944CDE903101146684600F06D
:1004300029F90FB000BD0000E5FFFFFF0A6802F8D0
:10044000010B0A60704700002DE9FF5F15468A46E0
:100450000446DFF8AC80F8440027D8E900103E4697
:10046000CDE9001010E03AF816106A4602A800F034
:10047000B6FE411C07D02178890603D5E2693918F8
:1004800091420DD80744761C2078800602D5E06999
:10049000B84205DDAE42E6DB3AF816000028E2D1AC
:1004A000A069C01BA0612046FFF7FEFED8E900103E
:1004B000CDE90010002017E03AF818106A4602A8AB
:1004C00000F08DFEB0F1FF3F81460BD000250DF10D
:1004D000080B05E0D4E901211BF8050090476D1CCD
:1004E0004D45F7D308F10100B0428046E4DB206AB5
:1004F000384420622046FFF7EDFEBDE8FF9F000074
:10050000A23200002DE9F0418046D21D22F0070200
:100510000025D2E90002F52915A614D0011E72F1BA
:10052000000106DA0023D0EB030063EB020211A600
:1005300008E0D8F800108B0701D50FA602E04907A4
:1005400001D50EA601251146002408F1240704E078
:1005500000F0A0F930323A55641C50EA0102F7D19C
:100560002B46324621464046BDE8F04100F0D7B95F
:10057000000000002D0000002B0000002000000003
:1005800030B4002100F1240408E002F00705D2088D
:10059000303542EA4372DB086554491C52EA0305D0
:1005A000F3D10468002310A2250708D504F0200425
:1005B0000C4304D0C46901230CA2641EC46130BC86
:1005C00000F0ADB910B5044621461068FFF79CFE57
:1005D00002462046BDE810400023D1E7D21D22F09C
:1005E0000701D1E90023CBE7000000003000000044
:1005F000F0B40D460188090502D5214C7C4402E087
:100600001F4C7C440E34002100F1240608E002F067
:100610000F071209E75D42EA03721B097754491C70
:1006200052EA0307F3D102780023120704D5702D94
:1006300006D009B1022311342246F0BC00F06FB994
:1006400001231034F8E770B504460D4621461068C2
:10065000FFF75AFE024629462046BDE870400023B7
:10066000C6E7D21D22F00703D3E90023C0E70368E1
:10067000126843F0200303600823C3610023B7E737
:10068000043100002DE9F05F894604464FF0000A6E
:10069000DFF874B1FB44C0F820A02046E168884729
:1006A000002874D0252806D0D4E901219047206A7B
:1006B000401C2062F1E700265F462046E16888473B
:1006C0002028054607DB312D05D2781910F8200CBB
:1006D00008B10643F1E7B00701D526F00406C4F8D7
:1006E0001CA00027C4F818A02A2D09D0284602F023
:1006F00063FC38B304EB8708303DC8F8185019E0A4
:1007000059F8041B204604EB87029161E168884791
:10071000012F054618D1E069002820DA26F02006CE
:100720001DE0D8F8180000EB800005EB40003038E1
:10073000C8F818002046E1688847054602F03CFCEE
:100740000028EED1012F0AD02E2D08D12046E168D5
:1007500088477F1C0546022F46F02006C4DBA069AF
:10076000002803DA404246F00106A061F00701D0FC
:1007700026F010066C2D0BD0682D09D04C2D39D0E9
:100780006A2D35D0742D35D07A2D33D016E038E06F
:10079000E1682F4620468847B842054609D16C2FAC
:1007A00026D04FF48060E16806432046884705461E
:1007B00004E06C2F1AD04FF4807006430DB3A5F1FE
:1007C0004100192802D8203546F400664A462946D9
:1007D000204626604E46FFF7B5FC80B101280BD0BD
:1007E000F61D26F0070000F1080956E74020E4E76F
:1007F0008020D8E70020D6E706F104094DE7284617
:1008000052E7206ABDE8F09F943000002DE9F047E0
:1008100091460F4680460446002614F8015B2DB130
:1008200000F030F80068405DC007F6D12B2D02D0F3
:100830002D2D18D0641E4A463946204600F080FC13
:1008400027B13968A14201D1C7F800804FF00204F6
:1008500071050BD54042002803DDFFF721FD046040
:10086000A007BDE8F08746F48066E4E70028F8DAE0
:10087000FFF716FD04606FF00040F2E70048704794
:100880000000002010B500F0F3FC001D10BD00BFFB
:100890003927000030B5B0F10A0271F100034FEAC8
:1008A000900E4EEA817EB0EB0E0061EB91014FEAB3
:1008B000101E4EEA017E10EB0E0041EB11114FEAC3
:1008C000102E4EEA016E10EB0E0041EB11214FEAA3
:1008D000104E4EEA014E10EB0E0041EB1141401854
:1008E00041F100014FEAD00040EA41704FEAD101E6
:1008F0004FEA810444EA907410EB800544EB010454
:100900006D1944EB0404521BA3414FF0000348BF90
:100910000A3200D530BD401C41F1000130BD2DE947
:10092000F0470D4699469246044600F124080168B6
:10093000880604D5E06921F01001216000E0012063
:10094000A84201DD471B00E00027A1697A1902EBEC
:100950000900081AA0612078C00602D42046FFF7DB
:10096000A3FC002608E0D4E901211AF8060090470C
:10097000206A401C761C20624E45F4DB2078C006BD
:100980000AD52046FFF790FC06E0D4E9012130208B
:100990009047206A401C2062381EA7F10107F4DC52
:1009A00007E0D4E9012118F805009047206A401CAF
:1009B0002062281EA5F10105F3DC2046FFF78AFC22
:1009C0002078000602D50220BDE8F0870120FBE771
:1009D0002DE9FF4F0C461E464FF0FF378BB0D2E992
:1009E0000001DDF860800A908A46C1F30A5505B916
:1009F0003D46002108464FF00000BAF1000F00F418
:100A0000400005DA00EB80004FF4400101EA50009D
:100A10004FEA9059B9F1010F00DDB9460A9850EA42
:100A20004A000ED044F61050A5F2FF3545432F146E
:100A3000B8F1000F1ED07542291E1EDDC9F100025B
:100A40001CE0B8F1010F4FF0000001D0302103E0AD
:100A5000F24305E02154401CB042FBDB304600224B
:100A6000002121540B99C1F80880C1E900200FB082
:100A7000BDE8F08FBD1B6D1CDEE74A4600DA694217
:100A800006A800F047FC06AB93E8070003AB83E839
:100A9000070050460A9901F0B2FE8DE80700A0F564
:100AA00000501F3800900398002D0ADD42F21F010C
:100AB0004A460844002303A90390684602F01CF943
:100AC00009E0A0F500504A461F38002303A903900F
:100AD000684602F026F98DE807000004000C03D0F8
:100AE0004FF0FF30410800E01046B8F1000F03D08E
:100AF0000022009215461EE0751E05D4FFF7CAFEBF
:100B0000303262556D1EF9D5B3460122084302D03A
:100B100000227F1C04E02078302801D100227F1EB3
:100B2000002A099784D01DE0112D07DAFFF7B2FEE5
:100B3000303262556D1C50EA0102F5D1084302D0F3
:100B40000098C8B10EE00021681E05E0235C625CDD
:100B500063542254401E491C8142F7DBAB46A81B5C
:100B6000401E0990002004F80B000B98099AC0F869
:100B70000880C0E9002B7AE711264FF0000857E7FC
:100B80002DE9F04F88460446D21D22F0070191B0AE
:100B9000D1E90001CDE90A0102F0FAF902460B9809
:100BA000C00F01D02D2007E02068810701D52B2040
:100BB00002E0202101EAC000032A099001D0072A9F
:100BC00005DB03464146204600F056FB0BE120784A
:100BD000800601D5E06900E00620B8F1650F814686
:100BE00006D0B8F1660F18D0B8F1670F70D131E0B8
:100BF0000020B9F1110F009001DB112301E009F190
:100C000001030AAA01A90CA8FFF7E2FEDDE90C70B6
:100C1000002609F10105834647E001204B4600907C
:100C20004FF000470AAA01A90CA8FFF7D1FEDDE9A1
:100C30000DB00C995D46002610B909F101000D18A0
:100C4000B9EB050003D4C0F1FF3609F10105A5EBAE
:100C500009002BE0B9F1010F01DA4FF00109002082
:100C6000B9F1110F0090484601DD112300E0034661
:100C70000AAA01A90CA8FFF7ABFEDDE90C704D46EE
:100C800000268346207800070AD4AB4500DA5D468B
:100C900001A8012D04DD411911F8011C302907D0EC
:100CA0004F4502DA17F1040F04DA012082460FE003
:100CB0006D1EEEE7002F02DCED1B3E4403E0781CC6
:100CC000A84200DD7D1CB81B00F1010A4FF000476F
:100CD0002078000703D4AA4501DB4FF0FF3A00213A
:100CE000B7F1004F0DF143088DF8431024D00220D6
:100CF0002B23002F01DA7F422D230A21021EA0F1AF
:100D0000010000DC5FB197FBF1FC97FBF1F201FB06
:100D10001C7C17460CF1300C08F801CDEEE7A8F169
:100D2000010003702188090501D5452100E06521F6
:100D3000A0F1010800F8011C09980FA9A1EB080710
:100D4000FF1D00B10120411901EBEA70A16938448F
:100D5000081A401EA0612078C00602D42046FFF782
:100D6000A3FA099828B1D4E901219047206A401CD0
:100D700020622078C00622D52046FFF795FA1EE0B3
:100D8000002E04DBB34502DD01A8805D00E03020C9
:100D9000D4E901219047206A401C2062761CAAF108
:100DA00001005FEA000A0AD100F062FAC068016837
:100DB000405CD4E901219047206A401C2062281E33
:100DC000A5F10105DCDC07E0D4E9012118F8010BED
:100DD0009047206A401C2062381EA7F10107F3DC0F
:100DE0002046FFF777FA032011B041E62DE9F04FD6
:100DF00004460D46D21D22F0070089B0D0E90097C5
:100E00004846394602F0C4F80246F80F01D02D23B7
:100E100007E02068810701D52B2302E0202101EAA9
:100E2000C0038DF820300BB1012000E00020032A20
:100E3000824601D0072A04DB2946204600F01CFA2E
:100E40003FE12078800601D40D2500E0E569C7F375
:100E50000A560D2D49DA00214FEA175B08464FF07C
:100E60000000002F00F4400007DA00EB80004FF490
:100E7000400100EBD07001EA60008115012901DD1D
:100E80004FF0FF3100224FEA850CBCF1180F06D35A
:100E90001346ACF118004FF08052C24003E04FF40B
:100EA000801323FA0CF30CF10C0CBCF1200F04D3CB
:100EB000ACF1200C09FA0CF001E007FA0CF0002963
:100EC0004FF0004801DD18B90FE00ED140450CD3BA
:100ED00019EB02095F4121B9404502D19F4329EA3C
:100EE0000209BBEB175F00D0761C2088000502D5F5
:100EF0007B48784402E07A487844193808AA3023BD
:100F000002F80A30037C0AF10101002E0AF1020AFC
:100F100053546A4602DC4FF0300101E04FF03101DA
:100F20004FF001088DF8001002D0A6F2FF3603E062
:100F300059EA470100D06B4E002D02DC21780907E9
:100F400004D54FF002082E218DF80110C44600216F
:100F50000BE0C7F303433F01C35C491C6D1E02F85D
:100F60000830052908F1010801DA002DF1DC002123
:100F70000CE000EB1973491C1B786D1E082902F860
:100F800008304FEA091908F1010801DA002DF0DCF8
:100F900021688B0602D516E0A8F10108E04505DDC1
:100FA00002EB080313F8013C302BF5D0B8F1000F29
:100FB00009DD02EB080313F8013C2E2B03D10907CE
:100FC00001D4A8F10108002D05DD3E2102F808102A
:100FD0006D1E08F10108407C002E02F8080008F19F
:100FE000010804DA2D20764202F8080002E02B20E6
:100FF00002F808000A214FF47A70864208F10108CD
:101000000BDB96FBF0F3303302F8083096FBF0F37D
:1010100008F1010800FB136601E0642E0CDB64207C
:1010200096FBF0F3303302F8083096FBF0F308F14A
:10103000010800FB136601E00A2E06DB96FBF1F0C7
:10104000303002F8080008F1010896FBF1F001FBCE
:101050001060303002F80800A16908F1010808EBBF
:10106000050202EB0A00081AA0612078C00602D42B
:101070002046FFF719F9216A08AE01EB0A00206249
:1010800004E0D4E9012116F8010B9047BAF1010AF6
:10109000F7D22078C00602D52046FFF705F96E4644
:1010A00009E016F8010B3E280FD0D4E90121904742
:1010B000206A401C2062B8F10108F2D22046FFF7F6
:1010C00009F909B00320BDE8F08F206A28442062A6
:1010D00003E0D4E90121302090476D1EEBD3F8E7FF
:1010E0005A28000002FCFFFF10B5436913B1AFF3AB
:1010F000008001E0FFF711F9012010BD127800F126
:1011000024010A7000224A700122EDE711684FF0B5
:10111000FF32E9E710B5436913B1AFF3008001E096
:10112000FFF792F9012010BD128800F1240182849A
:101130000022C2840122EDE711684FF0FF32E9E797
:101140002DE9F05F824615468B4600270AF101041F
:10115000B9460078302801D09DB113E014F8010B96
:101160000127782803D0582801D045B10AE00DB1F5
:10117000102D07D1002714F8010B102502E00825D7
:1011800000E00A250026B0460EE005FB080005FB3E
:1011900006F101271FFA80F801EB1046B6F5803FF3
:1011A00000D3B94614F8010B294600F0A5F8002831
:1011B000EBDABBF1000F05D00FB1641E00E054461E
:1011C000CBF80040B9F1000F06D0FFF769F8022113
:1011D0000160C81EBDE8F09F48EA0640FAE72DE925
:1011E000F04116460C460546FFF74CFB036893F8A2
:1011F0000101012807D0FF2C12D8185D80B1012011
:101200002C70BDE8F081D3F807013246214603F285
:101210000713C7182846BC46BDE8F04100236047C5
:101220004FF0FF30EDE77546FFF728FBAE460500AF
:101230006946534620F00700854618B020B5FEF7F2
:10124000F8FFBDE820404FF000064FF000074FF0D8
:1012500000084FF0000BAC46ACE8C009ACE8C00990
:10126000ACE8C009ACE8C00921F007018D46704721
:1012700000487047200000202DE9F0411F46044639
:1012800003260168072A01F4006004DB08B116A5F3
:1012900005E016A503E008B115A500E015A521F0AD
:1012A00010002060A069C01EA0610FB1401EA061A7
:1012B0002046FEF7F9FF4FB1D4E9012138469047A7
:1012C000206A401C2062C01C206206E0206AFAE707
:1012D000D4E9012115F8010B9047761EF8D220467B
:1012E000FEF7F8FFBDE8F0814E414E006E616E00E2
:1012F000494E4600696E66003A2800D2303820F028
:101300002002412A01D3A2F13700884201D34FF0D5
:10131000FF3070472DE9F047814616468AB03548C0
:1013200078440DC88DE80D0032487844801C03AC29
:101330000DC884E80D0041F69B300844372190FB2E
:10134000F1F290FBF1F5A5F1800501FB12041B3CC5
:1013500002D56442012000E00020DFF898A080461A
:101360000027FA44AAF1BE0A0EE0E0070AD032468E
:10137000684607EB470101230AEB810101F0D1FC2C
:101380008DE8070064107F1C002CEED1194F7F44BC
:10139000AE3F19E0E80715D007EB04100DF1180A6D
:1013A00090E80E008AE80E00C068F04201D198195A
:1013B00008903246012306A903A801F0B2FC03AB52
:1013C00083E807006D10641C002DE3D14FF001038A
:1013D00032466946B8F1000F03A802D001F08CFC38
:1013E00001E001F09EFCC9E90001C9F808200AB03B
:1013F000BDE8F087BC24000010B50446AFF30080C0
:101400002046BDE81040FEF700BF00004FF0013C51
:1014100050F8042B51F8043B9A4221D1A2EB0C0363
:10142000934313EACC1317D150F8042B51F8043B23
:101430009A4215D1A2EB0C03934313EACC130BD1C0
:1014400050F8042B51F8043B9A4209D1A2EB0C034B
:10145000934313EACC13DBD04FF00000704700BF7A
:10146000D01A01BAB1FA81F101F0180122FA01F0A3
:10147000CB40DBB2C0B2C01AC1F120012CFA01F39B
:10148000D11A914311EAC311E6D1704701491820DE
:10149000ABBEFEE7260002007047000080B58AB0B0
:1014A00001210491084600F05FFB04990C2000F034
:1014B0005BFB0498ADF82400482001908DF82700CC
:1014C000032002908DF8260040F60040C4F201008F
:1014D00009A9039100F0A8F9019A029803998023C1
:1014E000ADF824308DF827208DF8260040F6000056
:1014F000C4F2010000F098F904980021059100F071
:1015000069F90499059807918DF822108DF820004B
:1015100008208DF8210007A800F0E6F8049800F0F4
:10152000B3F8022000F0B0F80499059806228DF86F
:1015300018208DF81B108DF8190006A800F052FA3B
:101540000AB080BD80B582B0012000F0A7F8002865
:1015500000F09880FFE7012000F096F840F60000C8
:10156000C4F20100802100F023FA30BBFFE740F213
:101570009E00C2F20000B0F9000088B9FFE740F217
:101580006C00C2F200000068002101F0DDFD38B1FE
:10159000FFE740F26C01C2F2000100200860FFE7A3
:1015A00040F26C00C2F20000019000684FF07E51E2
:1015B00001F068FD01990860FFE740F60000C4F201
:1015C0000100802100F0F4F938B3FFE740F29E00FB
:1015D000C2F20000B0F9000088B9FFE740F26C00E9
:1015E000C2F200000068002101F0AEFD38B1FFE753
:1015F00040F26C01C2F2000100200860FFE740F2F7
:101600006C00C2F20000009000680021CBF68071EF
:1016100001F038FD00990860FFE740F26C00C2F26B
:10162000000000680021C4F25C3101F0A9FD70B92E
:10163000FFE740F29E01C2F20001088801300880F5
:1016400040F26C01C2F2000100200860FFE740F2A6
:101650006C00C2F2000000680021CCF25C3101F0A5
:1016600088FD70B9FFE740F29E01C2F200010888D0
:101670000138088040F26C01C2F2000100200860CD
:10168000FFE7FFE702B080BD81B00090009840F214
:101690001441C4F20101086001B0704783B00290A8
:1016A00000208DF80700009040F20040C4F20100D5
:1016B000006802990840009040F21440C4F2010012
:1016C00000680299084207D0FFE7009820B1FFE7C1
:1016D00001208DF8070003E000208DF80700FFE7E8
:1016E0009DF8070003B0704782B001900020009081
:1016F00040F20040C4F20100009001988079002877
:1017000059D0FFE70198026840F20041C4F201019C
:101710000868904308600198026840F20441C4F2EE
:101720000101086890430860019801790098084415
:1017300000900198026800990868104308600198B9
:10174000026840F20841C4F2010108689043086051
:101750000198026840F20C41C4F20101086890430C
:10176000086001984079102813D1FFE701980268BA
:1017700040F20841C4F20101086810430860019872
:10178000026840F20C41C4F201010868104308608D
:1017900010E040F20040C4F201000090019841794D
:1017A0000098084400900198026800990868104366
:1017B0000860FFE70BE00198017900980844009069
:1017C000019802680099086890430860FFE702B03A
:1017D0007047000082B08DF807008DF806100020D9
:1017E00000909DF8060000F0030081000F20884063
:1017F0000090009B9DF8060000F0FC010822C4F256
:1018000001028858984388509DF807109DF80600FB
:1018100000F003039B0001FA03F300F0FC01885879
:101820001843885002B0704788B007900691002096
:101830000590049003900290019000900698C07863
:1018400000F00F0005900698C078C006002806D565
:10185000FFE706988178059808430590FFE706980A
:10186000007800284BD0FFE707980068019000201F
:101870000390FFE7039807283DD8FFE7039901206D
:1018800088400290069800880299084004900498C5
:10189000029988422AD1FFE70398800002900299BA
:1018A0000F20884000900099019888430190059886
:1018B000029900FA01F10198084301900698C07856
:1018C000282806D1FFE7039901208840079948613D
:1018D0000BE00698C078482806D1FFE7039901205D
:1018E000884007990861FFE7FFE7FFE7FFE70398F4
:1018F00001300390BEE7019807990860FFE706985A
:101900000088B0F5807F50DBFFE7079840680190C2
:1019100000200390FFE70398072842D8FFE70398C9
:1019200000F1080101208840029006980088029981
:10193000084004900498029988422DD1FFE703984B
:101940008000029002990F20884000900099019831
:10195000884301900598029900FA01F10198084323
:1019600001900698C078282808D1FFE7039800F175
:1019700008010120884007994861FFE70698C07870
:10198000482808D1FFE7039800F1080101208840AA
:1019900007990861FFE7FFE7FFE70398013003902D
:1019A000B9E7019807994860FFE708B07047000061
:1019B00082B00190ADF8021000208DF8010001986E
:1019C0008068BDF80210084204D0FFE701208DF8BE
:1019D000010003E000208DF80100FFE79DF8010001
:1019E00002B0704784B003900020029001900F2055
:1019F00000900398C078C0B3FFE74EF60C50CEF2CB
:101A000000000068C043C0F3022002900298C0F1B9
:101A10000400019000980299C84000900398407813
:101A200001998840029003988078009901400298BB
:101A300008430290029800010290029803990978E5
:101A40004EF20042CEF2000288540398027802F06F
:101A50001F01012088404EF20011CEF2000141EA40
:101A6000D20121F0030108600FE00398027802F030
:101A70001F01012088404EF28011CEF2000141EAA0
:101A8000D20121F003010860FFE704B070470000B5
:101A900080B58EB004200121049100F065F804990E
:101AA000084600F045F8049818218DF83710ADF875
:101AB0003400032000908DF8360040F60000C4F298
:101AC000010001900DA90291FFF7AEFE009A019866
:101AD000029910238DF837300C23ADF834308DF88F
:101AE0003620FFF7A1FE00200390ADF82A00632006
:101AF000ADF82C002320ADF828004FF08040059071
:101B00000AA900F0F7FA0499059800F00FFA039A71
:101B1000049905986023ADF81830ADF82020ADF891
:101B20001E20ADF81A1006A900F032FA0EB080BDE2
:101B300082B001908DF803109DF8030048B1FFE7D3
:101B4000019A41F21C01C4F20201086810430860C6
:101B500008E0019A41F21C01C4F2020108689043B6
:101B60000860FFE702B0704782B001908DF8031063
:101B70009DF8030048B1FFE7019A41F21801C4F251
:101B8000020108681043086008E0019A41F2180158
:101B9000C4F20201086890430860FFE702B0704792
:101BA00086B005900020049003900290019041F2CD
:101BB0000400C4F20200006800F00C0004900498D5
:101BC000009040B1FFE7009804280BD0FFE7009891
:101BD00008280ED047E0059941F20020C0F27A00B3
:101BE000086047E0059941F20020C0F27A000860E1
:101BF00040E041F20400C4F20200016801F47011F7
:101C00000391006800F4803002900399022000EBF9
:101C100091400390029848B9FFE7039840F60011FD
:101C2000C0F23D014843059908601BE041F2040001
:101C3000C4F2020000688003002809D5FFE703987A
:101C400040F60011C0F23D0148430599086008E0E4
:101C5000039841F20021C0F27A01484305990860D7
:101C6000FFE7FFE706E0059941F20020C0F27A00A5
:101C70000860FFE741F20400C4F20200016801F0CD
:101C8000F0010491049909090491049A43F2FC714A
:101C9000C0F600018A5C0192059B1A68DDF804C059
:101CA00022FA0CF25A60026802F4E0620492049A8A
:101CB000120A0492049A8A5C0192059B5A68DDF824
:101CC00004C022FA0CF29A60026802F46052049294
:101CD000049AD20A0492049A895C0191059A516887
:101CE000019BD940D160006800F440400490049802
:101CF000800B0490049943F2F870C0F60000405C39
:101D000001900599C868019AB0FBF2F0086106B02D
:101D10007047000080B500F001F880BD84B000205D
:101D20000390029041F20001C4F20201086840F4FD
:101D300080300860FFE741F20000C4F20200006852
:101D400000F400300290039801300390FFE70299FD
:101D50000020019039B9FFE70398B0F5A06018BFE3
:101D600001200190FFE70198C0070028E3D1FFE7B9
:101D700041F20000C4F2020000688003002803D58D
:101D8000FFE70120029002E000200290FFE70298A6
:101D9000012851D1FFE742F20001C4F202010868B4
:101DA00040F010000860086820F00700086008682C
:101DB00040F00200086041F20401C4F20201009107
:101DC0000868086008680860086840F48060086077
:101DD000086820F47C100860086840F4E810086087
:101DE00041F20001C4F20201086840F0807008600E
:101DF000FFE741F20000C4F2020000688001002801
:101E000001D4FFE7F5E741F20401C4F202010868DA
:101E100020F003000860086840F002000860FFE757
:101E200041F20400C4F20200006800F00C0008282F
:101E300001D0FFE7F4E700E0FFE704B070470000DF
:101E400080B541F20002C4F20202106840F00100C5
:101E5000106041F20401C4F2020108680023CFF6C9
:101E6000FF031840086010684FF6FF73CFF6F66363
:101E700018401060106820F480201060086820F47A
:101E8000FE00086041F20801C4F202014FF41F0095
:101E90000860FFF73FFF4EF60851CEF200014FF009
:101EA0000060086080BD000080B540F20040C4F2D0
:101EB0000000012100F050F8012808D1FFE740F2AE
:101EC0000040C4F20000012100F024F8FFE780BDCB
:101ED00080B586B0042001210291FFF729FE002081
:101EE000ADF80E004721ADF80C104FF6FF71ADF8BC
:101EF0001010ADF8120040F60000C4F2000001908E
:101F000003A900F0F7F80198029900F00FF806B065
:101F100080BD000082B00190ADF80210BDF8020053
:101F2000C0430199088202B07047000082B001905E
:101F30008DF803109DF8030030B1FFE70199088880
:101F400040F00100088005E00199088820F00100B8
:101F50000880FFE702B0704782B00190ADF8021030
:101F600000208DF801000198008ABDF80210084099
:101F7000000420B1FFE701208DF8010003E00020FC
:101F80008DF80100FFE79DF8010002B070470000E6
:101F900084B0039002910020ADF80600ADF8040073
:101FA000ADF802000399088C20F001000884039822
:101FB000008CADF8040003988088ADF80200039807
:101FC000008BADF80600BDF8060020F07000ADF8FB
:101FD0000600BDF8060020F00300ADF806000298E8
:101FE0000188BDF806000843ADF80600BDF80400FE
:101FF00020F00200ADF8040002980189BDF8040049
:102000000843ADF8040002984188BDF80400084375
:10201000ADF80400039842F60041C4F20101884281
:1020200020D0FFE7039843F20041C4F20101884247
:1020300018D0FFE7039844F20001C4F2010188427E
:1020400010D0FFE7039844F20041C4F20101884236
:1020500008D0FFE7039844F60001C4F2010188426A
:1020600035D1FFE7BDF8040020F00800ADF804000A
:1020700002984189BDF804000843ADF80400BDF89A
:10208000040020F00400ADF8040002988188BDF837
:1020900004000843ADF80400BDF8020020F480708D
:1020A000ADF80200BDF8020020F40070ADF80200A7
:1020B00002988189BDF802000843ADF80200029839
:1020C000C189BDF802000843ADF80200FFE7BDF882
:1020D000020003998880BDF80600039908830298DE
:1020E000C08803998886BDF804000399088404B069
:1020F0007047000083B0029001910020ADF802000B
:1021000002980088ADF80200029842F60041C4F23D
:102110000101884225D0FFE7029843F20041C4F252
:10212000010188421DD0FFE70298B0F1804F18D01E
:10213000FFE7029840F20041C4F20001884210D04B
:10214000FFE7029840F60001C4F20001884208D07F
:10215000FFE7029840F60041C4F2000188420ED128
:10216000FFE7BDF8020020F07000ADF80200019812
:102170004188BDF802000843ADF80200FFE702986D
:1021800041F20001C4F20001884216D0FFE7029834
:1021900041F20041C4F2000188420ED0FFE7BDF8D1
:1021A000020020F44070ADF802000198C188BDF82B
:1021B00002000843ADF80200FFE7BDF802000299F3
:1021C0000880019880880299888501980088029982
:1021D0000885029842F60041C4F20101884220D0ED
:1021E000FFE7029843F20041C4F20101884218D08F
:1021F000FFE7029844F20001C4F20101884210D0C6
:10220000FFE7029844F20041C4F20101884208D07D
:10221000FFE7029844F60001C4F20101884205D1AB
:10222000FFE70198007A02990886FFE702990120EA
:10223000888203B07047000080B582B044F6000089
:10224000C4F2000040F2255100F0A0F880B3FFE78F
:1022500044F60000C4F200000190202100F02AF8AA
:10226000019800F0E3F9024640F29C01C2F200013D
:102270000B78581C087040F26000C2F20000C25493
:102280000978405C3E2812D1FFE740F29C01C2F27F
:1022900000010020087040F26000C2F20000FDF76B
:1022A000EFFF40F29801C2F200010860FFE7FFE78C
:1022B00002B080BD82B00190ADF80210BDF80200FE
:1022C0008005002801D5FFE7FFE7BDF80200C04305
:1022D0000199088002B0704783B00290ADF80610F3
:1022E0000020ADF80400ADF80200BDF8060040F68D
:1022F0006A11884201D1FFE7FFE79DF80700ADF8BA
:102300000400BDF8041001208840ADF80200BDF8BB
:102310000200C0430299088003B0704782B0019068
:102320008DF803109DF8030030B1FFE7019988890B
:1023300040F40050888105E00199888920F400501C
:102340008881FFE702B0704782B00190ADF80210BB
:1023500000208DF80100BDF80200B0F5007F01D12A
:10236000FFE7FFE701980088BDF80210084000046D
:1023700020B1FFE701208DF8010003E000208DF877
:102380000100FFE79DF8010002B0704786B005909C
:10239000ADF8121000200390029001908DF8030018
:1023A000BDF8120040F66A11884201D1FFE7FFE74D
:1023B0009DF8120040090190BDF8120000F01F00C6
:1023C000029002990120884002900198012806D1CC
:1023D000FFE70598818902980840029010E0019873
:1023E000022806D1FFE70598018A0298084002906A
:1023F00005E00598818A029808400290FFE7FFE710
:102400009DF81300039003990120884003900598DC
:102410000188039808400390029838B1FFE70398B9
:1024200020B1FFE701208DF8030003E000208DF8C4
:102430000300FFE79DF8030006B0704786B00590E3
:10244000ADF812108DF81120002003900290019039
:102450000090BDF8120040F66A11884201D1FFE7F2
:10246000FFE7059800909DF8120040090390BDF821
:10247000120000F01F000290029901208840019094
:102480000398012804D1FFE700980C3000900CE07D
:102490000398022804D1FFE700981030009003E071
:1024A000009814300090FFE7FFE79DF8110030B16D
:1024B000FFE7019A009908681043086005E0019A57
:1024C0000099086890430860FFE706B07047000075
:1024D00080B58CB00B900A9100200990089007906D
:1024E000069005900A98808908B1FFE7FFE70B98EE
:1024F00005900B98008A099009984CF6FF710840E6
:1025000009900A98C18809980843099009980B997D
:1025100008820B988089099009984EF6F3110840BB
:1025200009900A9988880A891043498901430998C2
:102530000843099009980B9988810B98808A099023
:1025400009984FF6FF41084009900A988189099837
:102550000843099009980B9988826846FFF720FB89
:10256000059843F60001C4F20101884203D1FFE758
:102570000398089002E002980890FFE70B98808982
:10258000000400280AD5FFE70898192148430A9952
:1025900009684900B0FBF1F0079009E0089819219B
:1025A00048430A9909688900B0FBF1F00790FFE7FA
:1025B000079848F21F51C5F2EB11A0FB01016FF023
:1025C0000F0000EA51000990079A09980009642158
:1025D00000FB112006900B9880890004002810D57C
:1025E000FFE70699322000EBC10048F21F51C5F207
:1025F000EB11A0FB0110C0F34211099808430990A8
:102600000FE00699322000EB011048F21F51C5F28D
:10261000EB11A0FB0110C0F3431109980843099086
:10262000FFE709980B9908810CB080BD81B000903C
:10263000009880886FF35F2001B0704782B00190EE
:10264000ADF80210BDF802006FF35F200199888099
:1026500002B0704780B582B001908DF80310002061
:102660008DF80200FFE79DF802009DF803108842F4
:102670001DDAFFE7FFE744F60000C4F20000802106
:10268000FFF762FE08B9FFE7F5E70198017844F625
:102690000000C4F20000FFF7D1FF01980130019063
:1026A000FFE79DF8020001308DF80200DBE702B081
:1026B00080BD000080B58EB04FF4802001210791CD
:1026C000FFF736FA07990846FFF74EFA07990C20EC
:1026D0000590FFF749FA4FF48060ADF8200018200C
:1026E0008DF82300032001908DF8220040F6004071
:1026F000C4F20100029008A90391FFF795F8019A2E
:10270000029803994FF40063ADF8203004238DF84C
:1027100023308DF82220FFF787F8079A44F600004F
:10272000C4F20000069040F225510491FFF786FEA6
:1027300004990698FFF7D0FD079827218DF83410EB
:102740008DF837008DF835000DA8FFF74BF9059986
:102750000698079A4FF416530993ADF82E100021EE
:10276000ADF82C10ADF82A20ADF82810ADF83010D7
:1027700009A9FFF7ADFE06980799FFF7CFFD069868
:102780000799FFF7CBFD0EB080BD000080B584B087
:1027900000200390FFF77CF9FFF79AFBFEF77EFE1F
:1027A000FFF788FFFFE740F26C00C2F2000000680C
:1027B0000021C4F2B43100F05BFE0021C4F25C31B0
:1027C00000F0F8FC00F032FC01900A46019940F25A
:1027D0007000C2F20000426001600268436840F28B
:1027E0007800C2F20000029043F60C01C0F600012E
:1027F000FDF730FD02981E21FFF72CFFD3E75FEABB
:10280000400C08BF91F0000F4FEA8C234FEAC12221
:1028100043EA51514FEA1C5018BF00F5F0404FEA0F
:10282000300018BF41F000415FEA6C5C00F0298085
:10283000BCF1FF3F08BF40F080407047130C06BF5B
:1028400012044FF0100C4FF0000C130E04BF1202D4
:102850000CF1080C130F04BF12010CF1040C930FC0
:1028600004BF92000CF1020CD30F04BF52000CF114
:10287000010C11464FF00002A0F11F00A0EB0C006C
:10288000704711F0004F08BF704731F000413FF42E
:10289000D5AF0B0C06BF09044FF0100C4FF0000C25
:1028A0000B0E04BF09020CF1080C0B0F04BF090149
:1028B0000CF1040C8B0F04BF89000CF1020CCB0F40
:1028C00004BF49000CF1010CCCF1200322FA03F300
:1028D00041EA030102FA0CF2A0EB0C0000F1010046
:1028E0007047000023F07F4720F07F4C80EA030010
:1028F00000F00040ACEB070303F57C5303F1FF034A
:102900002DE9804909B44FEA144324EA03484FEA09
:10291000154B25EA0B4E0FF2042606EB13273E78E3
:1029200003FB0667C7F5000707FB06F64FEAD64626
:1029300006F102064FEA543707FB066CCCF1005C47
:102940004FEA1C472CEA074C0CFB06F507FB06F484
:1029500004EB15464FEA961649085FEA320234BF87
:1029600000204FF000404FEAD13706FB07FC4FEA4A
:102970001C4C0CFB0BF7D21B03FB0CF761EB0701A4
:102980000CFB0EF7B0EB074072EB17420CFB08F79D
:1029900034BFA2EB0742B2EB074261EB17414FEAAB
:1029A0000C444FEA910706FB07FC4FEA1C4C0CFB5A
:1029B0000BF7B0EBC74072EB573203FB0CF734BF99
:1029C000A2EBC742B2EBC74261EB57310CFB0EF7EB
:1029D000B0EBC70072EB57720CFB08F734BFA2EBE9
:1029E000C702B2EBC70261EB57714FEA816141EA5E
:1029F00092114FEA826242EA90124FEA806004EB41
:102A0000CC04039F4FEAD13706FB07FC4FEA1C4C6E
:102A10000CFB0BF7D21B03FB0CF761EB07010CFB64
:102A20000EF7B0EB074072EB17420CFB08F734BF10
:102A3000A2EB0742B2EB074261EB17414FEA8C551C
:102A400004EB9C244FEA910706FB07FC4FEA1C4C61
:102A50000CFB0BF7B0EBC74072EB573203FB0CF7E4
:102A600034BFA2EBC742B2EBC74261EB57310CFB5C
:102A70000EF7B0EBC70072EB57720CFB08F734BFD0
:102A8000A2EBC702B2EBC70261EB57714FEA81615B
:102A900041EA92114FEA826242EA90124FEA806064
:102AA00015EB4C2544F100044FEAD13706FB07FC37
:102AB0004FEA1C4C0CFB0BF7D21B03FB0CF761EB32
:102AC00007010CFB0EF7B0EB074072EB17420CFB53
:102AD00008F734BFA2EB0742B2EB074261EB1741A4
:102AE0004FEA813141EA92414FEA823242EA904212
:102AF0004FEA80304FEA0C7615EB1C1544F10004C8
:102B000048EA03434EEA0B484FF0000EB2EB080CC4
:102B100071EB030724BF624639464EEB0E0E4FF0B1
:102B2000000B0018524149414BEB0B0BB2EB080C68
:102B300071EB03077BF1000B24BF624639464EEB75
:102B40000E0E4FF0000B0018524149414BEB0B0B9E
:102B5000B2EB080C71EB03077BF1000B24BF62465C
:102B600039464EEB0E0E51EA020718BF46F0010639
:102B700016EB0E7655F1000254F1000103D5BDE8C5
:102B80008901BDE80088BDE88901BDE80048B619A3
:102B9000524141EB0101A3F10103704780807F7E28
:102BA0007D7C7B7A797877767675747372717170C3
:102BB0006F6E6E6D6C6C6B6A6A6968686766666575
:102BC0006464636362616160605F5F5E5E5D5D5C03
:102BD0005C5B5B5A5A595958585757565655555574
:102BE0005454535352525251515050504F4F4F4ED4
:102BF0004E4D4D4D4C4C4C4B4B4B4A4A4A49494922
:102C00004848484747474746464645454544444463
:102C10004443434343424242424141419C46002B8C
:102C200030D477002BD04FEA37071CB503B44FF0F0
:102C300010004FF01001BAF1000F06D0BCF1000FE8
:102C4000DCBF40F0080040F008014FF000000FBC6E
:102C5000BDE810400BF1010BBBF1010F08BF5FEAAB
:102C6000170722BF12F1010211F101014FF00041DB
:102C700043F1000300F0004043EA00007047F9D33D
:102C80005708D0E746EA06464FEA164613F1400FCA
:102C90001FDD13F1200FDFBF16430A46002120334A
:102CA0005B42BED0C3F1200746EA06464FEA16460D
:102CB00002FA07F746EA070622FA03F2C3F12007F1
:102CC00001FA07F742EA070221FA03F14FF0000385
:102CD000A7E746EA020646EA06464FEA164646EAED
:102CE0000106BCBF46EA0646360C4FF000034FF023
:102CF00000024FF0000194E72DE9804C70B49A4631
:102D0000934691E8380007C831EA400C48BF34EADE
:102D1000430C03D5FFF7E6FDFFF780FFF0BCBDE8ED
:102D2000008C2DE9804C70B49A46934691E83800A7
:102D300007C810F0804F08BF13F0804F03D100F098
:102D400005F8FFF76BFFF0BCBDE8008C20F07F4773
:102D500023F07F4C80EA030000F0004007EB0C03F7
:102D6000A3F57C53A3F1FE0392F0000F00F0B380B3
:102D700095F0000F00F077802DE901494FEA1140EE
:102D800021EA00484FEA144624EA064700FB06FC05
:102D900008FB06F607FB08F818EB06484CEB164C48
:102DA00000FB07F718EB07484CEB17404FEA124BB4
:102DB00022EA0B4E4FEA154625EA06470BFB06FCB6
:102DC0000EFB06F607FB0EFE1EEB064E4CEB164CFA
:102DD0000BFB07F71EEB074E4CEB174B18EB0B08E2
:102DE00040F1000018EB0E0B58EB000840F100001A
:102DF0008F1A4FF000014FF000063CBFC943661B1D
:102E000014BFB5EB040C00213CBFC943F61B4FEACD
:102E1000174427EA04454FEA1C472CEA074C04FBF9
:102E2000076205FB07F70CFB05F616EB074642EBBE
:102E3000174204FB0CFC16EB0C4642EB1C421BEB4E
:102E4000060658EB020241414EEA8E0E46EA9E0605
:102E500001D5BDE80189B619524141EB0101A3F149
:102E60000103BDE801894FEA144524EA05464FEA0B
:102E7000114721EA074C05FB07F406FB07F70CFB9B
:102E800006F111EB074144EB174405FB0CFC11EB79
:102E90000C4144EB1C444FEA124722EA074C05FB65
:102EA00007F206FB07F70CFB06F616EB074642EBAC
:102EB000174205FB0CFC16EB0C4642EB1C456A184E
:102EC00054F1000148BF7047B619524141EB01016E
:102ED000A3F10103704795F0000F37D04FEA11427C
:102EE00021EA02464FEA144724EA074C02FB07F1A5
:102EF00006FB07F70CFB06F414EB074441EB174104
:102F000002FB0CFC14EB0C4441EB1C414FEA15474F
:102F100025EA074C02FB07F506FB07F70CFB06F654
:102F200016EB074645EB174502FB0CFC16EB0C466F
:102F300045EB1C42121951F1000148BF7047B61908
:102F4000524141EB0101A3F1010370474FEA1445DF
:102F500024EA05464FEA114721EA074C05FB07F131
:102F600006FB07F70CFB06F212EB074241EB174199
:102F700005FB0CFC12EB0C4251EB1C414FF0000620
:102F800048BF7047921841EB0101A3F1010370475C
:102F9000490050EAC12018BF04204A0D18BF40F074
:102FA000010040F2FF72B2EB515F08BF40F0020037
:102FB000012808BF0520704730380A2801D20120B7
:102FC000704700207047000010B500290AD008782B
:102FD000002807D005487844FEF718FA002801D0E9
:102FE000002010BD0248784410BD00004E080000CB
:102FF0004608000010B500290AD00878002807D03C
:1030000005487844FEF702FA002801D0002010BDE0
:103010000248784410BD0000320900002A0900006F
:103020000808A0F500114FEA3101704743004FEA4C
:10303000D30C4FEA3C0C43401FBF40070CF16051DA
:1030400013F0FE4F70471CF0006F03D10CF00041ED
:10305000002070470CF0004343EA507040EACC0077
:1030600010B500F086FA00BF000000924FEA0001A0
:10307000FFF7D6BF4FF00041A1F500214FF000004F
:103080007047000090EA010F48BF81F0004100F155
:10309000C282421A3CBF801A89184FEAD052A2EB72
:1030A000D1534FF07F4C1CEA410F18BF9CEA026FCE
:1030B00000F03B804FF0004C4CEA00204CEA01212C
:1030C00021FA03FC10EB0C0C1ED202F1FF325FEA76
:1030D0001C2040EBC25038BF70471CF07F0F4FEAF6
:1030E000400C18BFBCF17F4F38BF7047C3F12003BD
:1030F000994008BF20F00100BCF17F4F38BF7047F6
:10310000A0F1C04000F07BBA4FEA3C00000A40EB5F
:10311000C25028BF1CF0FF0F4FEA400CE6D018BF8A
:10312000BCF17F4F38BF7047EAE79CEA026F05D0D9
:1031300010EA5C0F08BF00F00040704710B500F0C7
:1031400018FA00BF64FBBE3E10B500F0F5F80CBFE6
:103150000120002010BD10B500F0EEF814BF0120D2
:10316000002010BD10B500F01BF98CBF012000201D
:1031700010BD10B500F014F92CBF0120002010BDC7
:1031800010B500F041F994BF0120002010BD10B52A
:1031900000F03AF934BF0120002010BD401058BFA4
:1031A000C0F14040491058BFC1F140418142EFF3A6
:1031B000008070474FF47F0C1CEAD0121EBF1CEA3F
:1031C000D11392EA0C0F93EA0C0F00F0858090EA7D
:1031D000010F48BF42F4807240F4000C41F400003B
:1031E0002CF07F4120F07F4000B5A2EB030281422A
:1031F0000FF2081CACEB504E9EF800E0C0F100004E
:103200004FEA4E0E00FB0EFC38BF49004FEA2C1C63
:103210000CFB0EF34FEACE1E0EEB635E4FEA112C51
:103220000EFB0CFC4FEAC1214FEA1C5300FB0311BB
:1032300002F5FA024FEA112C0EFB0CFC4FEA0131A9
:103240004FEADC4C00FB0C1142EB2242C14228BF8A
:1032500009184CEB03335DF804EB10EB410143EB31
:10326000C250B2F57C0F38BF704729D512F0F00F6D
:103270001CBF00F1C04000F0004070470081828315
:103280008485868788898B8C8D8E8F919293959675
:1032900097999A9C9D9FA0A2A3A5A7A8AAACAEB0FF
:1032A000B2B3B5B7B9BCBEC0C2C5C7C9CCCED1D404
:1032B000D7D9DCDFE2E6E9ECF0F3F7FAFE00000034
:1032C0004FEA400C0CF1807CBCF17E4F28BF704768
:1032D000B0F1C04000F093B90CEAD11390EA010FAD
:1032E00048BF42F48072624538BF634507D213F489
:1032F0007F0F16D080EA010000F00040704710B543
:1033000000F037F9097EFC3E00F005B880EA0100C4
:1033100000F00040704780EA010000F0004000F03B
:103320006EB912F47F0F04BF0248704780EA0100B3
:1033300000F065B90000C07F50EA010C00F1138075
:103340001CF5000F58BFBCF5000F01D48842704730
:1033500007D710F5000F58BF11F5000F15D488429C
:103360007047894270471CF5000F04D5BCF5000F6B
:10337000F7D5814270474FF0807C1CEB400F38BF7F
:103380001CEB410F01D28142704710B500F0F1F8FB
:10339000922449004FF000504FF08051FFF7FEBEDD
:1033A00050EA010C00F113801CF5000F58BFBCF56A
:1033B000000F01D48842704707D710F5000F58BF9F
:1033C00011F5000F15D488427047894270471CF5EB
:1033D000000F04D5BCF5000FF7D5814270474FF0C0
:1033E000807C1CEB400F38BF1CEB410F01D28142A7
:1033F000704710B500F0BDF8922449004FF080509E
:103400004FF00051FFF7CABE50EA010C00F11380E3
:103410001CF5000F58BFBCF5000F01D4884270475F
:1034200007D710F5000F58BF11F5000F15D48842CB
:103430007047894270471CF5000F04D5BCF5000F9A
:10344000F7D5814270474FF0807C1CEB400F38BFAE
:103450001CEB410F01D28142704710B500F089F892
:10346000922449004FF000504FF08051FFF796BE74
:103470004FF47F0C1CEAD0121EBF1CEAD11392EA53
:103480000C0F93EA0C0F00F0478090EA010F48BF41
:1034900042F480724FF0004C4CEA00204CEA0121CB
:1034A00002EB0302A0FB0113A2F50002002918BFE2
:1034B00043F001035B0028BF4FEA330342EB224293
:1034C0005FEA132C4CEBC2502EBFBCEB436FB2F53E
:1034D0007C0F70474FEA036CBCF1004F08BF20F02F
:1034E0000100B2F57C0F38BF70470BD582F0FF02A8
:1034F00012F5803FC8BF704700F1C040D8BF00F050
:103500000040704700F5000C5FEA4C0C48BF704764
:10351000B0F1C04000F073B80CEAD11390EA010F8B
:1035200048BF42F48072624538BF634504D280EAE6
:10353000010000F00040704710B500F01AF800BF1D
:103540008900013E00F007B800F009B85FEA410CBD
:103550005FEA1C6C08D080EA010000F050B85FEA16
:10356000400C5FEA1C6CF6D14FF00040A0F58000E3
:1035700070470EF1020E2EF0030E5EF8044B24424B
:1035800004D44FEA4102B2F17F4F11D84FEA400311
:10359000B3F17F4F0CD80ED14FEAD07C0CEB4C0C22
:1035A0000CF1020CB2F17F4F08BF4CEBD17C04E070
:1035B0004FF0080C01E04FEAD17C0CEB4C0324FAED
:1035C00003F404F00704B4F1040C06D20EEB840CEF
:1035D000BDE810404CF0010C6047DFE80CF0070834
:1035E00002024FF00040A0F5800010BD08464200E6
:1035F00018BFD2F1807288BF00F0004010BDFF21DB
:1036000041EAD050C005704790EA010F48BF81F0F1
:1036100000413FF53EAD421A04D882F00042A0EBD3
:10362000020011444FEAD052A2EBD1534FF07F4C2D
:103630001CEA410F18BF9CEA026F4AD04FF0004CC1
:103640004CEA00204CEA012121FA03FCB0EB0C0CFF
:103650000FD412F0FE0F36D05FEA4C001DD50012D9
:1036600040EBC25038BF70471CF03F0F18BF704787
:103670000BE05FEA1C20A2F1010240EBC25038BF10
:1036800070471CF07F0F18BF7047C3F120039940AB
:1036900014BF401E20F0010070474FEA122380083B
:1036A00008BF7047B0FA80FCA2EB0C02CCF1280CEA
:1036B00060FA0CF093EA122F04BF00EBC25070477F
:1036C0004FEAC3707047130A5FEADC1008BF704707
:1036D000F6E79CEA026F04D010EA5C0F08BF0020F6
:1036E000704710B5FFF745FF40DFF63E81F0004020
:1036F0007047FDF745BAFDF779BB000000000000F8
:103700000000000030313233343536373839414229
:103710004344454640305800303132333435363733
:1037200038396162636465664030780004000008DF
:1037300000000000000000020001000010303132E3
:1037400033343536373839616263646566787000C2
:1037500030313233343536373839414243444546C7
:103760005850000002400000000000A000000000CF
:1037700005400000000000C8000000000C400000F0
:103780000000409C00000000194000000020BCBE6A
:103790000000000034400000BFC91B8E0000000480
:1037A000B5400000504BCFD06607E2CF01000000CB
:1037B0006C4100003E8251AADFEEA73401000000F8
:1037C000D9420000DCB5A0E23A301F97FFFFFFFFAF
:1037D000B4450000FD25A0C8E9A3C14FFFFFFFFFCE
:1037E000FF3F00000000008000000000FF3F0000DD
:1037F0000000008000000000020406080000000035
:1038000001020304010203040607080925660A0DE4
:10381000000000005039000800000020A006000051
:10382000280100081001000043000000F8FFFFFF1E
:1038300000404040404040404040414141414140C3
:103840004040404040404040404040404040404078
:103850004005020202020202020202020202020207
:10386000022020202020202020202002020202020C
:103870000202909090909090101010101010101064
:103880001010101010101010101010100202020270
:1038900002028888888888880808080808080808B4
:1038A00008080808080808080808080802020202B0
:1038B00040000000000000000000000000000000C8
:1038C00000000000000000000000000000000000F8
:1038D00000000000000000000000000000000000E8
:1038E00000000000000000000000000000000000D8
:1038F00000000000000000000000000000000000C8
:1039000000000000000000000000000000000000B7
:1039100000000000000000000000000000000000A7
:103920000000000000000000000000000000000097
:10393000000000001C00000043000000F8FFFFFF33
:103940000C0000000E0000000F0000002E00000020
:0400000508000219D4
:00000001FF
